8=FIX.4.2|9=100|35=A|34=1|49=MY-INITIATOR-CLIENT1|52=20240504-11:19:24.328|56=MY-ACCEPTOR-SERVICE|98=0|108=30|141=Y|10=087|
8=FIX.4.2|9=100|35=A|34=1|49=MY-INITIATOR-CLIENT1|52=20240504-11:28:34.753|56=MY-ACCEPTOR-SERVICE|98=0|108=30|141=Y|10=090|
8=FIX.4.2|9=100|35=A|34=1|49=MY-INITIATOR-CLIENT1|52=20240504-12:16:42.248|56=MY-ACCEPTOR-SERVICE|98=0|108=30|141=Y|10=086|
8=FIX.4.2|9=100|35=A|34=1|49=MY-INITIATOR-CLIENT1|52=20240505-05:23:35.309|56=MY-ACCEPTOR-SERVICE|98=0|108=30|141=Y|10=087|
8=FIX.4.2|9=100|35=A|34=1|49=MY-INITIATOR-CLIENT1|52=20240505-05:23:41.301|56=MY-ACCEPTOR-SERVICE|98=0|108=30|141=Y|10=076|
8=FIX.4.2|9=100|35=A|34=1|49=MY-INITIATOR-CLIENT1|52=20240505-05:23:46.307|56=MY-ACCEPTOR-SERVICE|98=0|108=30|141=Y|10=087|
8=FIX.4.2|9=100|35=A|34=1|49=MY-INITIATOR-CLIENT1|52=20240505-05:23:51.301|56=MY-ACCEPTOR-SERVICE|98=0|108=30|141=Y|10=077|
8=FIX.4.2|9=100|35=A|34=1|49=MY-INITIATOR-CLIENT1|52=20240505-05:31:55.812|56=MY-ACCEPTOR-SERVICE|98=0|108=30|141=Y|10=087|
8=FIX.4.2|9=100|35=A|34=1|49=MY-INITIATOR-CLIENT1|52=20240505-05:32:01.814|56=MY-ACCEPTOR-SERVICE|98=0|108=30|141=Y|10=081|
8=FIX.4.2|9=100|35=A|34=1|49=MY-INITIATOR-CLIENT1|52=20240505-05:32:06.818|56=MY-ACCEPTOR-SERVICE|98=0|108=30|141=Y|10=090|
8=FIX.4.2|9=100|35=A|34=1|49=MY-INITIATOR-CLIENT1|52=20240505-05:32:11.824|56=MY-ACCEPTOR-SERVICE|98=0|108=30|141=Y|10=083|
8=FIX.4.2|9=100|35=A|34=1|49=MY-INITIATOR-CLIENT1|52=20240505-06:57:02.471|56=MY-ACCEPTOR-SERVICE|98=0|108=30|141=Y|10=089|
8=FIX.4.2|9=100|35=A|34=1|49=MY-INITIATOR-CLIENT1|52=20240505-06:58:09.384|56=MY-ACCEPTOR-SERVICE|98=0|108=30|141=Y|10=100|
8=FIX.4.2|9=100|35=A|34=1|49=MY-INITIATOR-CLIENT1|52=20240505-07:07:22.664|56=MY-ACCEPTOR-SERVICE|98=0|108=30|141=Y|10=091|
8=FIX.4.2|9=100|35=A|34=1|49=MY-INITIATOR-CLIENT1|52=20240506-03:28:32.703|56=MY-ACCEPTOR-SERVICE|98=0|108=30|141=Y|10=086|
8=FIX.4.2|9=100|35=A|34=1|49=MY-INITIATOR-CLIENT1|52=20240506-03:28:43.702|56=MY-ACCEPTOR-SERVICE|98=0|108=30|141=Y|10=087|
8=FIX.4.2|9=100|35=A|34=1|49=MY-INITIATOR-CLIENT1|52=20240506-03:28:48.696|56=MY-ACCEPTOR-SERVICE|98=0|108=30|141=Y|10=104|
8=FIX.4.2|9=100|35=A|34=1|49=MY-INITIATOR-CLIENT1|52=20240506-06:06:14.378|56=MY-ACCEPTOR-SERVICE|98=0|108=30|141=Y|10=093|
8=FIX.4.2|9=100|35=A|34=1|49=MY-INITIATOR-CLIENT1|52=20240506-06:06:20.375|56=MY-ACCEPTOR-SERVICE|98=0|108=30|141=Y|10=087|
