8=FIX.4.2|9=100|35=A|34=1|49=MY-INITIATOR-CLIENT1|52=20240506-06:06:20.375|56=MY-ACCEPTOR-SERVICE|98=0|108=30|141=Y|10=087|